{
  "_format": "hh-sol-artifact-1",
  "contractName": "ReadTheAir",
  "sourceName": "contracts/ReadTheAir.sol",
  "abi": [
    {
      "inputs": [
        {
          "internalType": "string",
          "name": "contractName",
          "type": "string"
        },
        {
          "internalType": "string",
          "name": "contractSymbol",
          "type": "string"
        },
        {
          "internalType": "address",
          "name": "_vault",
          "type": "address"
        },
        {
          "internalType": "address",
          "name": "_signer",
          "type": "address"
        },
        {
          "internalType": "string",
          "name": "__baseTokenURI",
          "type": "string"
        },
        {
          "internalType": "string",
          "name": "_hiddenMetadataUri",
          "type": "string"
        },
        {
          "internalType": "address[]",
          "name": "_payees",
          "type": "address[]"
        },
        {
          "internalType": "uint256[]",
          "name": "_shares",
          "type": "uint256[]"
        }
      ],
      "stateMutability": "payable",
      "type": "constructor"
    },
    {
      "anonymous": false,
      "inputs": [
        {
          "indexed": true,
          "internalType": "address",
          "name": "owner",
          "type": "address"
        },
        {
          "indexed": true,
          "internalType": "address",
          "name": "approved",
          "type": "address"
        },
        {
          "indexed": true,
          "internalType": "uint256",
          "name": "tokenId",
          "type": "uint256"
        }
      ],
      "name": "Approval",
      "type": "event"
    },
    {
      "anonymous": false,
      "inputs": [
        {
          "indexed": true,
          "internalType": "address",
          "name": "owner",
          "type": "address"
        },
        {
          "indexed": true,
          "internalType": "address",
          "name": "operator",
          "type": "address"
        },
        {
          "indexed": false,
          "internalType": "bool",
          "name": "approved",
          "type": "bool"
        }
      ],
      "name": "ApprovalForAll",
      "type": "event"
    },
    {
      "anonymous": false,
      "inputs": [
        {
          "indexed": true,
          "internalType": "contract IERC20",
          "name": "token",
          "type": "address"
        },
        {
          "indexed": false,
          "internalType": "address",
          "name": "to",
          "type": "address"
        },
        {
          "indexed": false,
          "internalType": "uint256",
          "name": "amount",
          "type": "uint256"
        }
      ],
      "name": "ERC20PaymentReleased",
      "type": "event"
    },
    {
      "anonymous": false,
      "inputs": [
        {
          "indexed": true,
          "internalType": "address",
          "name": "previousOwner",
          "type": "address"
        },
        {
          "indexed": true,
          "internalType": "address",
          "name": "newOwner",
          "type": "address"
        }
      ],
      "name": "OwnershipTransferred",
      "type": "event"
    },
    {
      "anonymous": false,
      "inputs": [
        {
          "indexed": false,
          "internalType": "address",
          "name": "account",
          "type": "address"
        },
        {
          "indexed": false,
          "internalType": "uint256",
          "name": "shares",
          "type": "uint256"
        }
      ],
      "name": "PayeeAdded",
      "type": "event"
    },
    {
      "anonymous": false,
      "inputs": [
        {
          "indexed": false,
          "internalType": "address",
          "name": "from",
          "type": "address"
        },
        {
          "indexed": false,
          "internalType": "uint256",
          "name": "amount",
          "type": "uint256"
        }
      ],
      "name": "PaymentReceived",
      "type": "event"
    },
    {
      "anonymous": false,
      "inputs": [
        {
          "indexed": false,
          "internalType": "address",
          "name": "to",
          "type": "address"
        },
        {
          "indexed": false,
          "internalType": "uint256",
          "name": "amount",
          "type": "uint256"
        }
      ],
      "name": "PaymentReleased",
      "type": "event"
    },
    {
      "anonymous": false,
      "inputs": [
        {
          "indexed": true,
          "internalType": "address",
          "name": "from",
          "type": "address"
        },
        {
          "indexed": true,
          "internalType": "address",
          "name": "to",
          "type": "address"
        },
        {
          "indexed": true,
          "internalType": "uint256",
          "name": "tokenId",
          "type": "uint256"
        }
      ],
      "name": "Transfer",
      "type": "event"
    },
    {
      "inputs": [],
      "name": "Author",
      "outputs": [
        {
          "internalType": "string",
          "name": "",
          "type": "string"
        }
      ],
      "stateMutability": "view",
      "type": "function"
    },
    {
      "inputs": [],
      "name": "MAX_TOKENS",
      "outputs": [
        {
          "internalType": "uint256",
          "name": "",
          "type": "uint256"
        }
      ],
      "stateMutability": "view",
      "type": "function"
    },
    {
      "inputs": [],
      "name": "ProjectTeam",
      "outputs": [
        {
          "internalType": "string",
          "name": "",
          "type": "string"
        }
      ],
      "stateMutability": "view",
      "type": "function"
    },
    {
      "inputs": [
        {
          "internalType": "address",
          "name": "to",
          "type": "address"
        },
        {
          "internalType": "uint256",
          "name": "tokenId",
          "type": "uint256"
        }
      ],
      "name": "approve",
      "outputs": [],
      "stateMutability": "nonpayable",
      "type": "function"
    },
    {
      "inputs": [
        {
          "internalType": "address",
          "name": "owner",
          "type": "address"
        }
      ],
      "name": "balanceOf",
      "outputs": [
        {
          "internalType": "uint256",
          "name": "",
          "type": "uint256"
        }
      ],
      "stateMutability": "view",
      "type": "function"
    },
    {
      "inputs": [],
      "name": "baseExtension",
      "outputs": [
        {
          "internalType": "string",
          "name": "",
          "type": "string"
        }
      ],
      "stateMutability": "view",
      "type": "function"
    },
    {
      "inputs": [
        {
          "internalType": "uint256",
          "name": "tokenId",
          "type": "uint256"
        }
      ],
      "name": "burn",
      "outputs": [],
      "stateMutability": "nonpayable",
      "type": "function"
    },
    {
      "inputs": [],
      "name": "buyBonusMultiplier",
      "outputs": [
        {
          "internalType": "uint256",
          "name": "",
          "type": "uint256"
        }
      ],
      "stateMutability": "view",
      "type": "function"
    },
    {
      "inputs": [
        {
          "internalType": "uint256",
          "name": "tokenId",
          "type": "uint256"
        }
      ],
      "name": "getApproved",
      "outputs": [
        {
          "internalType": "address",
          "name": "",
          "type": "address"
        }
      ],
      "stateMutability": "view",
      "type": "function"
    },
    {
      "inputs": [],
      "name": "hiddenMetadataUri",
      "outputs": [
        {
          "internalType": "string",
          "name": "",
          "type": "string"
        }
      ],
      "stateMutability": "view",
      "type": "function"
    },
    {
      "inputs": [
        {
          "internalType": "address",
          "name": "owner",
          "type": "address"
        },
        {
          "internalType": "address",
          "name": "operator",
          "type": "address"
        }
      ],
      "name": "isApprovedForAll",
      "outputs": [
        {
          "internalType": "bool",
          "name": "",
          "type": "bool"
        }
      ],
      "stateMutability": "view",
      "type": "function"
    },
    {
      "inputs": [],
      "name": "maxWhitelistPassMints",
      "outputs": [
        {
          "internalType": "uint256",
          "name": "",
          "type": "uint256"
        }
      ],
      "stateMutability": "view",
      "type": "function"
    },
    {
      "inputs": [],
      "name": "name",
      "outputs": [
        {
          "internalType": "string",
          "name": "",
          "type": "string"
        }
      ],
      "stateMutability": "view",
      "type": "function"
    },
    {
      "inputs": [
        {
          "internalType": "uint256",
          "name": "quantity",
          "type": "uint256"
        }
      ],
      "name": "openMint",
      "outputs": [],
      "stateMutability": "payable",
      "type": "function"
    },
    {
      "inputs": [],
      "name": "owner",
      "outputs": [
        {
          "internalType": "address",
          "name": "",
          "type": "address"
        }
      ],
      "stateMutability": "view",
      "type": "function"
    },
    {
      "inputs": [
        {
          "internalType": "uint256",
          "name": "tokenId",
          "type": "uint256"
        }
      ],
      "name": "ownerOf",
      "outputs": [
        {
          "internalType": "address",
          "name": "",
          "type": "address"
        }
      ],
      "stateMutability": "view",
      "type": "function"
    },
    {
      "inputs": [
        {
          "internalType": "uint256",
          "name": "index",
          "type": "uint256"
        }
      ],
      "name": "payee",
      "outputs": [
        {
          "internalType": "address",
          "name": "",
          "type": "address"
        }
      ],
      "stateMutability": "view",
      "type": "function"
    },
    {
      "inputs": [],
      "name": "privateMintIsOpen",
      "outputs": [
        {
          "internalType": "bool",
          "name": "",
          "type": "bool"
        }
      ],
      "stateMutability": "view",
      "type": "function"
    },
    {
      "inputs": [],
      "name": "publicMintIsOpen",
      "outputs": [
        {
          "internalType": "bool",
          "name": "",
          "type": "bool"
        }
      ],
      "stateMutability": "view",
      "type": "function"
    },
    {
      "inputs": [],
      "name": "publicMintMaxLimit",
      "outputs": [
        {
          "internalType": "uint256",
          "name": "",
          "type": "uint256"
        }
      ],
      "stateMutability": "view",
      "type": "function"
    },
    {
      "inputs": [
        {
          "internalType": "address payable",
          "name": "account",
          "type": "address"
        }
      ],
      "name": "release",
      "outputs": [],
      "stateMutability": "nonpayable",
      "type": "function"
    },
    {
      "inputs": [
        {
          "internalType": "contract IERC20",
          "name": "token",
          "type": "address"
        },
        {
          "internalType": "address",
          "name": "account",
          "type": "address"
        }
      ],
      "name": "release",
      "outputs": [],
      "stateMutability": "nonpayable",
      "type": "function"
    },
    {
      "inputs": [
        {
          "internalType": "contract IERC20",
          "name": "token",
          "type": "address"
        },
        {
          "internalType": "address",
          "name": "account",
          "type": "address"
        }
      ],
      "name": "released",
      "outputs": [
        {
          "internalType": "uint256",
          "name": "",
          "type": "uint256"
        }
      ],
      "stateMutability": "view",
      "type": "function"
    },
    {
      "inputs": [
        {
          "internalType": "address",
          "name": "account",
          "type": "address"
        }
      ],
      "name": "released",
      "outputs": [
        {
          "internalType": "uint256",
          "name": "",
          "type": "uint256"
        }
      ],
      "stateMutability": "view",
      "type": "function"
    },
    {
      "inputs": [],
      "name": "renounceOwnership",
      "outputs": [],
      "stateMutability": "nonpayable",
      "type": "function"
    },
    {
      "inputs": [],
      "name": "revealed",
      "outputs": [
        {
          "internalType": "bool",
          "name": "",
          "type": "bool"
        }
      ],
      "stateMutability": "view",
      "type": "function"
    },
    {
      "inputs": [
        {
          "internalType": "address",
          "name": "from",
          "type": "address"
        },
        {
          "internalType": "address",
          "name": "to",
          "type": "address"
        },
        {
          "internalType": "uint256",
          "name": "tokenId",
          "type": "uint256"
        }
      ],
      "name": "safeTransferFrom",
      "outputs": [],
      "stateMutability": "nonpayable",
      "type": "function"
    },
    {
      "inputs": [
        {
          "internalType": "address",
          "name": "from",
          "type": "address"
        },
        {
          "internalType": "address",
          "name": "to",
          "type": "address"
        },
        {
          "internalType": "uint256",
          "name": "tokenId",
          "type": "uint256"
        },
        {
          "internalType": "bytes",
          "name": "_data",
          "type": "bytes"
        }
      ],
      "name": "safeTransferFrom",
      "outputs": [],
      "stateMutability": "nonpayable",
      "type": "function"
    },
    {
      "inputs": [
        {
          "internalType": "address",
          "name": "operator",
          "type": "address"
        },
        {
          "internalType": "bool",
          "name": "approved",
          "type": "bool"
        }
      ],
      "name": "setApprovalForAll",
      "outputs": [],
      "stateMutability": "nonpayable",
      "type": "function"
    },
    {
      "inputs": [
        {
          "internalType": "string",
          "name": "_baseExtension",
          "type": "string"
        }
      ],
      "name": "setBaseExtension",
      "outputs": [],
      "stateMutability": "nonpayable",
      "type": "function"
    },
    {
      "inputs": [
        {
          "internalType": "string",
          "name": "newBaseURI",
          "type": "string"
        }
      ],
      "name": "setBaseURI",
      "outputs": [],
      "stateMutability": "nonpayable",
      "type": "function"
    },
    {
      "inputs": [
        {
          "internalType": "uint256",
          "name": "amount",
          "type": "uint256"
        }
      ],
      "name": "setFreeMints",
      "outputs": [],
      "stateMutability": "nonpayable",
      "type": "function"
    },
    {
      "inputs": [
        {
          "internalType": "string",
          "name": "_hiddenMetadataUri",
          "type": "string"
        }
      ],
      "name": "setHiddenMetadataUri",
      "outputs": [],
      "stateMutability": "nonpayable",
      "type": "function"
    },
    {
      "inputs": [
        {
          "internalType": "uint256",
          "name": "newPrice",
          "type": "uint256"
        },
        {
          "internalType": "uint256",
          "name": "newWhitelistTokenPrice",
          "type": "uint256"
        },
        {
          "internalType": "uint256",
          "name": "setOpenMintLimit",
          "type": "uint256"
        },
        {
          "internalType": "uint256",
          "name": "setWhistlistPassMintLimit",
          "type": "uint256"
        },
        {
          "internalType": "bool",
          "name": "setPublicMintState",
          "type": "bool"
        },
        {
          "internalType": "bool",
          "name": "setPrivateMintState",
          "type": "bool"
        }
      ],
      "name": "setParams",
      "outputs": [],
      "stateMutability": "nonpayable",
      "type": "function"
    },
    {
      "inputs": [
        {
          "internalType": "bool",
          "name": "_state",
          "type": "bool"
        }
      ],
      "name": "setRevealed",
      "outputs": [],
      "stateMutability": "nonpayable",
      "type": "function"
    },
    {
      "inputs": [
        {
          "internalType": "address",
          "name": "newSigner",
          "type": "address"
        }
      ],
      "name": "setSignerAddress",
      "outputs": [],
      "stateMutability": "nonpayable",
      "type": "function"
    },
    {
      "inputs": [
        {
          "internalType": "uint256",
          "name": "newPrice",
          "type": "uint256"
        }
      ],
      "name": "setTokenPrice",
      "outputs": [],
      "stateMutability": "nonpayable",
      "type": "function"
    },
    {
      "inputs": [
        {
          "internalType": "uint256",
          "name": "newMintLimit",
          "type": "uint256"
        }
      ],
      "name": "setTransactionMintLimit",
      "outputs": [],
      "stateMutability": "nonpayable",
      "type": "function"
    },
    {
      "inputs": [
        {
          "internalType": "address",
          "name": "newVault",
          "type": "address"
        }
      ],
      "name": "setVaultAddress",
      "outputs": [],
      "stateMutability": "nonpayable",
      "type": "function"
    },
    {
      "inputs": [
        {
          "internalType": "uint256",
          "name": "newprivateMintLimit",
          "type": "uint256"
        }
      ],
      "name": "setWhitelistTransactionMintLimit",
      "outputs": [],
      "stateMutability": "nonpayable",
      "type": "function"
    },
    {
      "inputs": [
        {
          "internalType": "address",
          "name": "account",
          "type": "address"
        }
      ],
      "name": "shares",
      "outputs": [
        {
          "internalType": "uint256",
          "name": "",
          "type": "uint256"
        }
      ],
      "stateMutability": "view",
      "type": "function"
    },
    {
      "inputs": [
        {
          "internalType": "bytes4",
          "name": "interfaceId",
          "type": "bytes4"
        }
      ],
      "name": "supportsInterface",
      "outputs": [
        {
          "internalType": "bool",
          "name": "",
          "type": "bool"
        }
      ],
      "stateMutability": "view",
      "type": "function"
    },
    {
      "inputs": [],
      "name": "symbol",
      "outputs": [
        {
          "internalType": "string",
          "name": "",
          "type": "string"
        }
      ],
      "stateMutability": "view",
      "type": "function"
    },
    {
      "inputs": [
        {
          "internalType": "address",
          "name": "to",
          "type": "address"
        },
        {
          "internalType": "uint256",
          "name": "amount",
          "type": "uint256"
        }
      ],
      "name": "teamMint",
      "outputs": [],
      "stateMutability": "nonpayable",
      "type": "function"
    },
    {
      "inputs": [],
      "name": "togglePresaleMint",
      "outputs": [],
      "stateMutability": "nonpayable",
      "type": "function"
    },
    {
      "inputs": [],
      "name": "togglePublicMint",
      "outputs": [],
      "stateMutability": "nonpayable",
      "type": "function"
    },
    {
      "inputs": [],
      "name": "tokenPrice",
      "outputs": [
        {
          "internalType": "uint256",
          "name": "",
          "type": "uint256"
        }
      ],
      "stateMutability": "view",
      "type": "function"
    },
    {
      "inputs": [
        {
          "internalType": "uint256",
          "name": "_tokenId",
          "type": "uint256"
        }
      ],
      "name": "tokenURI",
      "outputs": [
        {
          "internalType": "string",
          "name": "",
          "type": "string"
        }
      ],
      "stateMutability": "view",
      "type": "function"
    },
    {
      "inputs": [
        {
          "internalType": "contract IERC20",
          "name": "token",
          "type": "address"
        }
      ],
      "name": "totalReleased",
      "outputs": [
        {
          "internalType": "uint256",
          "name": "",
          "type": "uint256"
        }
      ],
      "stateMutability": "view",
      "type": "function"
    },
    {
      "inputs": [],
      "name": "totalReleased",
      "outputs": [
        {
          "internalType": "uint256",
          "name": "",
          "type": "uint256"
        }
      ],
      "stateMutability": "view",
      "type": "function"
    },
    {
      "inputs": [],
      "name": "totalShares",
      "outputs": [
        {
          "internalType": "uint256",
          "name": "",
          "type": "uint256"
        }
      ],
      "stateMutability": "view",
      "type": "function"
    },
    {
      "inputs": [],
      "name": "totalSupply",
      "outputs": [
        {
          "internalType": "uint256",
          "name": "",
          "type": "uint256"
        }
      ],
      "stateMutability": "view",
      "type": "function"
    },
    {
      "inputs": [
        {
          "internalType": "address",
          "name": "from",
          "type": "address"
        },
        {
          "internalType": "address",
          "name": "to",
          "type": "address"
        },
        {
          "internalType": "uint256",
          "name": "tokenId",
          "type": "uint256"
        }
      ],
      "name": "transferFrom",
      "outputs": [],
      "stateMutability": "nonpayable",
      "type": "function"
    },
    {
      "inputs": [
        {
          "internalType": "address",
          "name": "newOwner",
          "type": "address"
        }
      ],
      "name": "transferOwnership",
      "outputs": [],
      "stateMutability": "nonpayable",
      "type": "function"
    },
    {
      "inputs": [
        {
          "internalType": "uint256",
          "name": "_multiplier",
          "type": "uint256"
        }
      ],
      "name": "updateMultiplier",
      "outputs": [],
      "stateMutability": "nonpayable",
      "type": "function"
    },
    {
      "inputs": [
        {
          "internalType": "uint8",
          "name": "quantity",
          "type": "uint8"
        },
        {
          "internalType": "uint8",
          "name": "claimable",
          "type": "uint8"
        },
        {
          "components": [
            {
              "internalType": "bytes32",
              "name": "r",
              "type": "bytes32"
            },
            {
              "internalType": "bytes32",
              "name": "s",
              "type": "bytes32"
            },
            {
              "internalType": "uint8",
              "name": "v",
              "type": "uint8"
            }
          ],
          "internalType": "struct ReadTheAir.WhitelistClaimPass",
          "name": "whitelistClaimPass",
          "type": "tuple"
        }
      ],
      "name": "whitelistClaimMint",
      "outputs": [],
      "stateMutability": "payable",
      "type": "function"
    },
    {
      "inputs": [],
      "name": "whitelistMintMaxLimit",
      "outputs": [
        {
          "internalType": "uint256",
          "name": "",
          "type": "uint256"
        }
      ],
      "stateMutability": "view",
      "type": "function"
    },
    {
      "inputs": [],
      "name": "whitelistTokenPrice",
      "outputs": [
        {
          "internalType": "uint256",
          "name": "",
          "type": "uint256"
        }
      ],
      "stateMutability": "view",
      "type": "function"
    },
    {
      "inputs": [],
      "name": "withdraw",
      "outputs": [],
      "stateMutability": "nonpayable",
      "type": "function"
    },
    {
      "stateMutability": "payable",
      "type": "receive"
    }
  ],
  "bytecode": "0x600a601155603260125566d529ae9e860000601355600060145561038460155560016016556017805462ffffff191661010017905560c06040526005608081905264173539b7b760d91b60a09081526200005d9160199190620008a3565b50601b80546001600160a01b0319908116909155601c8054909116905560408051808201909152600680825265446961626c6f60d01b6020909201918252620000a991601e91620008a3565b50604080518082019091526008808252676e667470756d707360c01b6020909201918252620000db91601f91620008a3565b5060405162004d6638038062004d66833981016040819052620000fe9162000b52565b818189896200010d3362000317565b815162000122906001906020850190620008a3565b50805162000138906002906020840190620008a3565b5050508051825114620001ad5760405162461bcd60e51b815260206004820152603260248201527f5061796d656e7453706c69747465723a2070617965657320616e6420736861726044820152710cae640d8cadccee8d040dad2e6dac2e8c6d60731b60648201526084015b60405180910390fd5b6000825111620002005760405162461bcd60e51b815260206004820152601a60248201527f5061796d656e7453706c69747465723a206e6f207061796565730000000000006044820152606401620001a4565b60005b82518110156200026c576200025783828151811062000226576200022662000c80565b602002602001015183838151811062000243576200024362000c80565b60200260200101516200036760201b60201c565b80620002638162000cac565b91505062000203565b5050601b80546001600160a01b03199081166001600160a01b038a811691909117909255601c805490911691881691909117905550620002b9600f62000555602090811b620027f417901c565b620002d0600f6200055560201b620027f41760201c565b620002dd3360016200055e565b8351620002f2906018906020870190620008a3565b5082516200030890601a906020860190620008a3565b50505050505050505062000dab565b600080546001600160a01b038381166001600160a01b0319831681178455604051919092169283917f8be0079c531659141344cd1fd0a4f28419497f9722a3daafe3b4186f6b6457e09190a35050565b6001600160a01b038216620003d45760405162461bcd60e51b815260206004820152602c60248201527f5061796d656e7453706c69747465723a206163636f756e74206973207468652060448201526b7a65726f206164647265737360a01b6064820152608401620001a4565b60008111620004265760405162461bcd60e51b815260206004820152601d60248201527f5061796d656e7453706c69747465723a207368617265732061726520300000006044820152606401620001a4565b6001600160a01b0382166000908152600a602052604090205415620004a25760405162461bcd60e51b815260206004820152602b60248201527f5061796d656e7453706c69747465723a206163636f756e7420616c726561647960448201526a206861732073686172657360a81b6064820152608401620001a4565b600c8054600181019091557fdf6966c971051c3d54ec59162606531493a51404a002842f56009d7e5cf4a8c70180546001600160a01b0319166001600160a01b0384169081179091556000908152600a602052604090208190556008546200050c90829062000cca565b600855604080516001600160a01b0384168152602081018390527f40c340f65e17194d14ddddb073d3c9f888e3cb52b5aae0c6c7706b4fbc905fac910160405180910390a15050565b80546001019055565b620005808282604051806020016040528060008152506200058460201b60201c565b5050565b620005908383620005fc565b6200059f600084848462000744565b620005f75760405162461bcd60e51b8152602060048201526032602482015260008051602062004d4683398151915260448201527131b2b4bb32b91034b6b83632b6b2b73a32b960711b6064820152608401620001a4565b505050565b6001600160a01b038216620006545760405162461bcd60e51b815260206004820181905260248201527f4552433732313a206d696e7420746f20746865207a65726f20616464726573736044820152606401620001a4565b6000818152600360205260409020546001600160a01b031615620006bb5760405162461bcd60e51b815260206004820152601c60248201527f4552433732313a20746f6b656e20616c7265616479206d696e746564000000006044820152606401620001a4565b6001600160a01b0382166000908152600460205260408120805460019290620006e690849062000cca565b909155505060008181526003602052604080822080546001600160a01b0319166001600160a01b03861690811790915590518392907fddf252ad1be2c89b69c2b068fc378daa952ba7f163c4a11628f55a4df523b3ef908290a45050565b600062000765846001600160a01b03166200089d60201b620027fd1760201c565b156200089157604051630a85bd0160e11b81526001600160a01b0385169063150b7a02906200079f90339089908890889060040162000ce5565b6020604051808303816000875af1925050508015620007dd575060408051601f3d908101601f19168201909252620007da9181019062000d3b565b60015b62000876573d8080156200080e576040519150601f19603f3d011682016040523d82523d6000602084013e62000813565b606091505b5080516200086e5760405162461bcd60e51b8152602060048201526032602482015260008051602062004d4683398151915260448201527131b2b4bb32b91034b6b83632b6b2b73a32b960711b6064820152608401620001a4565b805181602001fd5b6001600160e01b031916630a85bd0160e11b14905062000895565b5060015b949350505050565b3b151590565b828054620008b19062000d6e565b90600052602060002090601f016020900481019282620008d5576000855562000920565b82601f10620008f057805160ff191683800117855562000920565b8280016001018555821562000920579182015b828111156200092057825182559160200191906001019062000903565b506200092e92915062000932565b5090565b5b808211156200092e576000815560010162000933565b634e487b7160e01b600052604160045260246000fd5b604051601f8201601f191681016001600160401b03811182821017156200098a576200098a62000949565b604052919050565b60005b83811015620009af57818101518382015260200162000995565b83811115620009bf576000848401525b50505050565b600082601f830112620009d757600080fd5b81516001600160401b03811115620009f357620009f362000949565b62000a08601f8201601f19166020016200095f565b81815284602083860101111562000a1e57600080fd5b6200089582602083016020870162000992565b80516001600160a01b038116811462000a4957600080fd5b919050565b60006001600160401b0382111562000a6a5762000a6a62000949565b5060051b60200190565b600082601f83011262000a8657600080fd5b8151602062000a9f62000a998362000a4e565b6200095f565b82815260059290921b8401810191818101908684111562000abf57600080fd5b8286015b8481101562000ae55762000ad78162000a31565b835291830191830162000ac3565b509695505050505050565b600082601f83011262000b0257600080fd5b8151602062000b1562000a998362000a4e565b82815260059290921b8401810191818101908684111562000b3557600080fd5b8286015b8481101562000ae5578051835291830191830162000b39565b600080600080600080600080610100898b03121562000b7057600080fd5b88516001600160401b038082111562000b8857600080fd5b62000b968c838d01620009c5565b995060208b015191508082111562000bad57600080fd5b62000bbb8c838d01620009c5565b985062000bcb60408c0162000a31565b975062000bdb60608c0162000a31565b965060808b015191508082111562000bf257600080fd5b62000c008c838d01620009c5565b955060a08b015191508082111562000c1757600080fd5b62000c258c838d01620009c5565b945060c08b015191508082111562000c3c57600080fd5b62000c4a8c838d0162000a74565b935060e08b015191508082111562000c6157600080fd5b5062000c708b828c0162000af0565b9150509295985092959890939650565b634e487b7160e01b600052603260045260246000fd5b634e487b7160e01b600052601160045260246000fd5b600060001982141562000cc35762000cc362000c96565b5060010190565b6000821982111562000ce05762000ce062000c96565b500190565b600060018060a01b03808716835280861660208401525083604083015260806060830152825180608084015262000d248160a085016020870162000992565b601f01601f19169190910160a00195945050505050565b60006020828403121562000d4e57600080fd5b81516001600160e01b03198116811462000d6757600080fd5b9392505050565b600181811c9082168062000d8357607f821691505b6020821081141562000da557634e487b7160e01b600052602260045260246000fd5b50919050565b613f8b8062000dbb6000396000f3fe6080604052600436106103905760003560e01c8063715018a6116101dc578063ce7c2ac211610102578063e7db8fb0116100a0578063f2fde38b1161006f578063f2fde38b14610ab5578063f47c84c514610ad5578063fa468ead14610aed578063fe471ed514610b0357600080fd5b8063e7db8fb014610a18578063e985e9c514610a38578063ed4dcde614610a81578063ee28de5214610a9657600080fd5b8063da3ef23f116100dc578063da3ef23f146109ad578063e0a80853146109cd578063e33b7de3146109ed578063e4a4255114610a0257600080fd5b8063ce7c2ac21461092b578063d25f404714610961578063d79779b21461097757600080fd5b8063a02d1d5a1161017a578063add5a4fa11610149578063add5a4fa146108b6578063b88d4fde146108d6578063c6682862146108f6578063c87b56dd1461090b57600080fd5b8063a02d1d5a14610854578063a15d60c514610867578063a22cb46514610881578063a45ba8e7146108a157600080fd5b80638b83209b116101b65780638b83209b146107cb5780638da5cb5b146107eb57806395d89b41146108095780639852595c1461081e57600080fd5b8063715018a6146107805780637ff9b5961461079557806385535cc5146107ab57600080fd5b80633a98ef39116102c157806348b750441161025f5780635ffe61461161022e5780635ffe6146146107005780636352211e146107205780636a61e5fc1461074057806370a082311461076057600080fd5b806348b75044146106805780634fdd43cb146106a057806351830227146106c057806355f804b3146106e057600080fd5b8063406072a91161029b578063406072a9146105e757806342842e0e1461062d5780634287084f1461064d57806342966c681461066057600080fd5b80633a98ef39146105a85780633ccfd60b146105bd5780634047638d146105d257600080fd5b806318160ddd1161032e57806320b2af521161030857806320b2af521461054857806323b872dd1461055d5780632cb15fd31461057d578063353f849e1461059357600080fd5b806318160ddd146104ef5780631916558714610512578063200ba9a61461053257600080fd5b8063081812fc1161036a578063081812fc14610457578063095ea7b31461048f5780630d738aeb146104af5780630f1e6828146104cf57600080fd5b806301ffc9a7146103de578063046dc1661461041357806306fdde031461043557600080fd5b366103d9577f6ef95f06320e7a25a04a175ca677b7052bdd97131872c2192525a629f51be77033604080516001600160a01b0390921682523460208301520160405180910390a1005b600080fd5b3480156103ea57600080fd5b506103fe6103f936600461388a565b610b23565b60405190151581526020015b60405180910390f35b34801561041f57600080fd5b5061043361042e3660046138bc565b610c08565b005b34801561044157600080fd5b5061044a610c96565b60405161040a9190613931565b34801561046357600080fd5b50610477610472366004613944565b610d28565b6040516001600160a01b03909116815260200161040a565b34801561049b57600080fd5b506104336104aa36600461395d565b610dce565b3480156104bb57600080fd5b506104336104ca366004613944565b610f00565b3480156104db57600080fd5b506104336104ea366004613944565b610f5f565b3480156104fb57600080fd5b50610504610fbe565b60405190815260200161040a565b34801561051e57600080fd5b5061043361052d3660046138bc565b610fda565b34801561053e57600080fd5b5061050460165481565b34801561055457600080fd5b5061044a6111b4565b34801561056957600080fd5b50610433610578366004613989565b611242565b34801561058957600080fd5b5061050460155481565b34801561059f57600080fd5b5061044a6112c9565b3480156105b457600080fd5b50600854610504565b3480156105c957600080fd5b506104336112d6565b3480156105de57600080fd5b5061043361136c565b3480156105f357600080fd5b506105046106023660046139ca565b6001600160a01b039182166000908152600e6020908152604080832093909416825291909152205490565b34801561063957600080fd5b50610433610648366004613989565b6113da565b61043361065b366004613944565b6113f5565b34801561066c57600080fd5b5061043361067b366004613944565b6115be565b34801561068c57600080fd5b5061043361069b3660046139ca565b611621565b3480156106ac57600080fd5b506104336106bb366004613a8f565b6118bf565b3480156106cc57600080fd5b506017546103fe9062010000900460ff1681565b3480156106ec57600080fd5b506104336106fb366004613a8f565b611930565b34801561070c57600080fd5b5061043361071b366004613944565b61199d565b34801561072c57600080fd5b5061047761073b366004613944565b611a7e565b34801561074c57600080fd5b5061043361075b366004613944565b611b09565b34801561076c57600080fd5b5061050461077b3660046138bc565b611b68565b34801561078c57600080fd5b50610433611c02565b3480156107a157600080fd5b5061050460135481565b3480156107b757600080fd5b506104336107c63660046138bc565b611c68565b3480156107d757600080fd5b506104776107e6366004613944565b611cf1565b3480156107f757600080fd5b506000546001600160a01b0316610477565b34801561081557600080fd5b5061044a611d21565b34801561082a57600080fd5b506105046108393660046138bc565b6001600160a01b03166000908152600b602052604090205490565b610433610862366004613aee565b611d30565b34801561087357600080fd5b506017546103fe9060ff1681565b34801561088d57600080fd5b5061043361089c366004613baf565b6120f2565b3480156108ad57600080fd5b5061044a6120fd565b3480156108c257600080fd5b506104336108d136600461395d565b61210a565b3480156108e257600080fd5b506104336108f1366004613bdd565b612219565b34801561090257600080fd5b5061044a6122a1565b34801561091757600080fd5b5061044a610926366004613944565b6122ae565b34801561093757600080fd5b506105046109463660046138bc565b6001600160a01b03166000908152600a602052604090205490565b34801561096d57600080fd5b5061050460115481565b34801561098357600080fd5b506105046109923660046138bc565b6001600160a01b03166000908152600d602052604090205490565b3480156109b957600080fd5b506104336109c8366004613a8f565b61243c565b3480156109d957600080fd5b506104336109e8366004613c5d565b6124a9565b3480156109f957600080fd5b50600954610504565b348015610a0e57600080fd5b5061050460125481565b348015610a2457600080fd5b50610433610a33366004613944565b61253b565b348015610a4457600080fd5b506103fe610a533660046139ca565b6001600160a01b03918216600090815260066020908152604080832093909416825291909152205460ff1690565b348015610a8d57600080fd5b506104336125ee565b348015610aa257600080fd5b506017546103fe90610100900460ff1681565b348015610ac157600080fd5b50610433610ad03660046138bc565b612665565b348015610ae157600080fd5b506105046305f5e10081565b348015610af957600080fd5b5061050460145481565b348015610b0f57600080fd5b50610433610b1e366004613c7a565b612744565b60007fffffffff0000000000000000000000000000000000000000000000000000000082167f80ac58cd000000000000000000000000000000000000000000000000000000001480610bb657507fffffffff0000000000000000000000000000000000000000000000000000000082167f5b5e139f00000000000000000000000000000000000000000000000000000000145b80610c0257507f01ffc9a7000000000000000000000000000000000000000000000000000000007fffffffff000000000000000000000000000000000000000000000000000000008316145b92915050565b6000546001600160a01b03163314610c675760405162461bcd60e51b815260206004820181905260248201527f4f776e61626c653a2063616c6c6572206973206e6f7420746865206f776e657260448201526064015b60405180910390fd5b601c805473ffffffffffffffffffffffffffffffffffffffff19166001600160a01b0392909216919091179055565b606060018054610ca590613cd8565b80601f0160208091040260200160405190810160405280929190818152602001828054610cd190613cd8565b8015610d1e5780601f10610cf357610100808354040283529160200191610d1e565b820191906000526020600020905b815481529060010190602001808311610d0157829003601f168201915b5050505050905090565b6000818152600360205260408120546001600160a01b0316610db25760405162461bcd60e51b815260206004820152602c60248201527f4552433732313a20617070726f76656420717565727920666f72206e6f6e657860448201527f697374656e7420746f6b656e00000000000000000000000000000000000000006064820152608401610c5e565b506000908152600560205260409020546001600160a01b031690565b6000610dd982611a7e565b9050806001600160a01b0316836001600160a01b03161415610e635760405162461bcd60e51b815260206004820152602160248201527f4552433732313a20617070726f76616c20746f2063757272656e74206f776e6560448201527f72000000000000000000000000000000000000000000000000000000000000006064820152608401610c5e565b336001600160a01b0382161480610e7f5750610e7f8133610a53565b610ef15760405162461bcd60e51b815260206004820152603860248201527f4552433732313a20617070726f76652063616c6c6572206973206e6f74206f7760448201527f6e6572206e6f7220617070726f76656420666f7220616c6c00000000000000006064820152608401610c5e565b610efb8383612803565b505050565b6000546001600160a01b03163314610f5a5760405162461bcd60e51b815260206004820181905260248201527f4f776e61626c653a2063616c6c6572206973206e6f7420746865206f776e65726044820152606401610c5e565b601255565b6000546001600160a01b03163314610fb95760405162461bcd60e51b815260206004820181905260248201527f4f776e61626c653a2063616c6c6572206973206e6f7420746865206f776e65726044820152606401610c5e565b601155565b60006001610fcb600f5490565b610fd59190613d29565b905090565b6001600160a01b0381166000908152600a60205260409020546110655760405162461bcd60e51b815260206004820152602660248201527f5061796d656e7453706c69747465723a206163636f756e7420686173206e6f2060448201527f73686172657300000000000000000000000000000000000000000000000000006064820152608401610c5e565b600061107060095490565b61107a9047613d40565b905060006110a783836110a2866001600160a01b03166000908152600b602052604090205490565b61287e565b90508061111c5760405162461bcd60e51b815260206004820152602b60248201527f5061796d656e7453706c69747465723a206163636f756e74206973206e6f742060448201527f647565207061796d656e740000000000000000000000000000000000000000006064820152608401610c5e565b6001600160a01b0383166000908152600b602052604081208054839290611144908490613d40565b92505081905550806009600082825461115d9190613d40565b9091555061116d905083826128c4565b604080516001600160a01b0385168152602081018390527fdf20fd1e76bc69d672e4814fafb2c449bba3a5369d8359adf9e05e6fde87b056910160405180910390a1505050565b601e80546111c190613cd8565b80601f01602080910402602001604051908101604052809291908181526020018280546111ed90613cd8565b801561123a5780601f1061120f5761010080835404028352916020019161123a565b820191906000526020600020905b81548152906001019060200180831161121d57829003601f168201915b505050505081565b61124c33826129dd565b6112be5760405162461bcd60e51b815260206004820152603160248201527f4552433732313a207472616e736665722063616c6c6572206973206e6f74206f60448201527f776e6572206e6f7220617070726f7665640000000000000000000000000000006064820152608401610c5e565b610efb838383612ae4565b601f80546111c190613cd8565b6000546001600160a01b031633146113305760405162461bcd60e51b815260206004820181905260248201527f4f776e61626c653a2063616c6c6572206973206e6f7420746865206f776e65726044820152606401610c5e565b601b546040516001600160a01b03909116904780156108fc02916000818181858888f19350505050158015611369573d6000803e3d6000fd5b50565b6000546001600160a01b031633146113c65760405162461bcd60e51b815260206004820181905260248201527f4f776e61626c653a2063616c6c6572206973206e6f7420746865206f776e65726044820152606401610c5e565b6017805460ff19811660ff90911615179055565b610efb83838360405180602001604052806000815250612219565b34816013546114049190613d58565b11156114525760405162461bcd60e51b815260206004820152601560248201527f4e6f7420656e6f7567682065746865722073656e7400000000000000000000006044820152606401610c5e565b600061145d600f5490565b90506011548211156114b15760405162461bcd60e51b815260206004820152601560248201527f4d696e7420616d6f756e7420746f6f206c6172676500000000000000000000006044820152606401610c5e565b6016546114be9083613d58565b60175490925060ff1615156001146115185760405162461bcd60e51b815260206004820152601260248201527f5075626c6963204d696e7420436c6f73656400000000000000000000000000006044820152606401610c5e565b6305f5e100611528600183613d29565b6115329084613d40565b11156115805760405162461bcd60e51b815260206004820152601b60248201527f4e6f7420656e6f75676820746f6b656e732072656d61696e696e6700000000006044820152606401610c5e565b60005b82811015610efb57611599600f80546001019055565b6115ac336115a78385613d40565b612cbe565b806115b681613d77565b915050611583565b6000546001600160a01b031633146116185760405162461bcd60e51b815260206004820181905260248201527f4f776e61626c653a2063616c6c6572206973206e6f7420746865206f776e65726044820152606401610c5e565b61136981612cd8565b6001600160a01b0381166000908152600a60205260409020546116ac5760405162461bcd60e51b815260206004820152602660248201527f5061796d656e7453706c69747465723a206163636f756e7420686173206e6f2060448201527f73686172657300000000000000000000000000000000000000000000000000006064820152608401610c5e565b6001600160a01b0382166000908152600d60205260408120546040517f70a082310000000000000000000000000000000000000000000000000000000081523060048201526001600160a01b038516906370a0823190602401602060405180830381865afa158015611722573d6000803e3d6000fd5b505050506040513d601f19601f820116820180604052508101906117469190613d92565b6117509190613d40565b9050600061178983836110a287876001600160a01b039182166000908152600e6020908152604080832093909416825291909152205490565b9050806117fe5760405162461bcd60e51b815260206004820152602b60248201527f5061796d656e7453706c69747465723a206163636f756e74206973206e6f742060448201527f647565207061796d656e740000000000000000000000000000000000000000006064820152608401610c5e565b6001600160a01b038085166000908152600e6020908152604080832093871683529290529081208054839290611835908490613d40565b90915550506001600160a01b0384166000908152600d602052604081208054839290611862908490613d40565b909155506118739050848483612ce1565b604080516001600160a01b038581168252602082018490528616917f3be5b7a71e84ed12875d241991c70855ac5817d847039e17a9d895c1ceb0f18a910160405180910390a250505050565b6000546001600160a01b031633146119195760405162461bcd60e51b815260206004820181905260248201527f4f776e61626c653a2063616c6c6572206973206e6f7420746865206f776e65726044820152606401610c5e565b805161192c90601a90602084019061378d565b5050565b6000546001600160a01b0316331461198a5760405162461bcd60e51b815260206004820181905260248201527f4f776e61626c653a2063616c6c6572206973206e6f7420746865206f776e65726044820152606401610c5e565b805161192c90601890602084019061378d565b6000546001600160a01b031633146119f75760405162461bcd60e51b815260206004820181905260248201527f4f776e61626c653a2063616c6c6572206973206e6f7420746865206f776e65726044820152606401610c5e565b600081118015611a075750600581105b611a795760405162461bcd60e51b815260206004820152602560248201527f5f6d756c7469706c696572206d7573742062652067726561746572207468616e60448201527f207a65726f0000000000000000000000000000000000000000000000000000006064820152608401610c5e565b601655565b6000818152600360205260408120546001600160a01b031680610c025760405162461bcd60e51b815260206004820152602960248201527f4552433732313a206f776e657220717565727920666f72206e6f6e657869737460448201527f656e7420746f6b656e00000000000000000000000000000000000000000000006064820152608401610c5e565b6000546001600160a01b03163314611b635760405162461bcd60e51b815260206004820181905260248201527f4f776e61626c653a2063616c6c6572206973206e6f7420746865206f776e65726044820152606401610c5e565b601355565b60006001600160a01b038216611be65760405162461bcd60e51b815260206004820152602a60248201527f4552433732313a2062616c616e636520717565727920666f7220746865207a6560448201527f726f2061646472657373000000000000000000000000000000000000000000006064820152608401610c5e565b506001600160a01b031660009081526004602052604090205490565b6000546001600160a01b03163314611c5c5760405162461bcd60e51b815260206004820181905260248201527f4f776e61626c653a2063616c6c6572206973206e6f7420746865206f776e65726044820152606401610c5e565b611c666000612d61565b565b6000546001600160a01b03163314611cc25760405162461bcd60e51b815260206004820181905260248201527f4f776e61626c653a2063616c6c6572206973206e6f7420746865206f776e65726044820152606401610c5e565b601b805473ffffffffffffffffffffffffffffffffffffffff19166001600160a01b0392909216919091179055565b6000600c8281548110611d0657611d06613dab565b6000918252602090912001546001600160a01b031692915050565b606060028054610ca590613cd8565b6040805160ff841660208083019190915233828401528251808303840181526060909201909252805191012082908290611d6a8183612dbe565b611db65760405162461bcd60e51b815260206004820152600c60248201527f496e76616c6964205061737300000000000000000000000000000000000000006044820152606401610c5e565b348660ff16601454611dc89190613d58565b1115611e165760405162461bcd60e51b815260206004820152601560248201527f4e6f7420656e6f7567682065746865722073656e7400000000000000000000006044820152606401610c5e565b6000611e21600f5490565b60175490915060ff610100909104161515600114611e815760405162461bcd60e51b815260206004820152601160248201527f436c61696d204d696e7420436c6f7365640000000000000000000000000000006044820152606401610c5e565b6305f5e100611e91600183613d29565b611e9e9060ff8a16613d40565b1115611eec5760405162461bcd60e51b815260206004820152601b60248201527f4e6f7420656e6f75676820746f6b656e732072656d61696e696e6700000000006044820152606401610c5e565b8560ff168760ff161115611f685760405162461bcd60e51b815260206004820152602d60248201527f4d696e74207175616e746974792063616e27742062652067726561746572207460448201527f68616e20636c61696d61626c65000000000000000000000000000000000000006064820152608401610c5e565b60008760ff1611611fe15760405162461bcd60e51b815260206004820152602760248201527f4d696e74207175616e74697479206d757374206265206772656174657220746860448201527f616e207a65726f000000000000000000000000000000000000000000000000006064820152608401610c5e565b6012548760ff1611156120365760405162461bcd60e51b815260206004820152601760248201527f4d696e74207175616e7469747920746f6f206c617267650000000000000000006044820152606401610c5e565b6015548760ff1661204660105490565b6120509190613d40565b111561209e5760405162461bcd60e51b815260206004820152601f60248201527f4e6f7420656e6f7567682066726565206d696e74732072656d61696e696e67006044820152606401610c5e565b60005b8760ff168110156120e8576120ba600f80546001019055565b6120c8601080546001019055565b6120d6336115a78385613d40565b806120e081613d77565b9150506120a1565b5050505050505050565b61192c338383612ea6565b601a80546111c190613cd8565b6000546001600160a01b031633146121645760405162461bcd60e51b815260206004820181905260248201527f4f776e61626c653a2063616c6c6572206973206e6f7420746865206f776e65726044820152606401610c5e565b600061216f600f5490565b90506305f5e10082612182600184613d29565b61218c9190613d40565b11156121da5760405162461bcd60e51b815260206004820152601b60248201527f4e6f7420656e6f75676820746f6b656e732072656d61696e696e6700000000006044820152606401610c5e565b60005b82811015612213576121f3600f80546001019055565b612201846115a78385613d40565b8061220b81613d77565b9150506121dd565b50505050565b61222333836129dd565b6122955760405162461bcd60e51b815260206004820152603160248201527f4552433732313a207472616e736665722063616c6c6572206973206e6f74206f60448201527f776e6572206e6f7220617070726f7665640000000000000000000000000000006064820152608401610c5e565b61221384848484612f75565b601980546111c190613cd8565b6000818152600360205260409020546060906001600160a01b031661233b5760405162461bcd60e51b815260206004820152602f60248201527f4552433732314d657461646174613a2055524920717565727920666f72206e6f60448201527f6e6578697374656e7420746f6b656e00000000000000000000000000000000006064820152608401610c5e565b60175462010000900460ff166123dd57601a805461235890613cd8565b80601f016020809104026020016040519081016040528092919081815260200182805461238490613cd8565b80156123d15780601f106123a6576101008083540402835291602001916123d1565b820191906000526020600020905b8154815290600101906020018083116123b457829003601f168201915b50505050509050919050565b60006123e7612ffe565b905060008151116124075760405180602001604052806000815250612435565b806124118461300d565b601960405160200161242593929190613dc1565b6040516020818303038152906040525b9392505050565b6000546001600160a01b031633146124965760405162461bcd60e51b815260206004820181905260248201527f4f776e61626c653a2063616c6c6572206973206e6f7420746865206f776e65726044820152606401610c5e565b805161192c90601990602084019061378d565b6000546001600160a01b031633146125035760405162461bcd60e51b815260206004820181905260248201527f4f776e61626c653a2063616c6c6572206973206e6f7420746865206f776e65726044820152606401610c5e565b6017805491151562010000027fffffffffffffffffffffffffffffffffffffffffffffffffffffffffff00ffff909216919091179055565b6000546001600160a01b031633146125955760405162461bcd60e51b815260206004820181905260248201527f4f776e61626c653a2063616c6c6572206973206e6f7420746865206f776e65726044820152606401610c5e565b6305f5e1008111156125e95760405162461bcd60e51b815260206004820152601a60248201527f46726565206d696e7420616d6f756e7420746f6f206c617267650000000000006044820152606401610c5e565b601555565b6000546001600160a01b031633146126485760405162461bcd60e51b815260206004820181905260248201527f4f776e61626c653a2063616c6c6572206973206e6f7420746865206f776e65726044820152606401610c5e565b6017805461ff001981166101009182900460ff1615909102179055565b6000546001600160a01b031633146126bf5760405162461bcd60e51b815260206004820181905260248201527f4f776e61626c653a2063616c6c6572206973206e6f7420746865206f776e65726044820152606401610c5e565b6001600160a01b03811661273b5760405162461bcd60e51b815260206004820152602660248201527f4f776e61626c653a206e6577206f776e657220697320746865207a65726f206160448201527f64647265737300000000000000000000000000000000000000000000000000006064820152608401610c5e565b61136981612d61565b6000546001600160a01b0316331461279e5760405162461bcd60e51b815260206004820181905260248201527f4f776e61626c653a2063616c6c6572206973206e6f7420746865206f776e65726044820152606401610c5e565b601494909455601394909455601191909155601255601780547fffffffffffffffffffffffffffffffffffffffffffffffffffffffffffff00001692151561ff0019169290921761010091151591909102179055565b80546001019055565b3b151590565b6000818152600560205260409020805473ffffffffffffffffffffffffffffffffffffffff19166001600160a01b038416908117909155819061284582611a7e565b6001600160a01b03167f8c5be1e5ebec7d5bd14f71427d1e84f3dd0314c0f7b2291e5b200ac8c7c3b92560405160405180910390a45050565b6008546001600160a01b0384166000908152600a6020526040812054909183916128a89086613d58565b6128b29190613e9b565b6128bc9190613d29565b949350505050565b804710156129145760405162461bcd60e51b815260206004820152601d60248201527f416464726573733a20696e73756666696369656e742062616c616e63650000006044820152606401610c5e565b6000826001600160a01b03168260405160006040518083038185875af1925050503d8060008114612961576040519150601f19603f3d011682016040523d82523d6000602084013e612966565b606091505b5050905080610efb5760405162461bcd60e51b815260206004820152603a60248201527f416464726573733a20756e61626c6520746f2073656e642076616c75652c207260448201527f6563697069656e74206d617920686176652072657665727465640000000000006064820152608401610c5e565b6000818152600360205260408120546001600160a01b0316612a675760405162461bcd60e51b815260206004820152602c60248201527f4552433732313a206f70657261746f7220717565727920666f72206e6f6e657860448201527f697374656e7420746f6b656e00000000000000000000000000000000000000006064820152608401610c5e565b6000612a7283611a7e565b9050806001600160a01b0316846001600160a01b03161480612aad5750836001600160a01b0316612aa284610d28565b6001600160a01b0316145b806128bc57506001600160a01b0380821660009081526006602090815260408083209388168352929052205460ff16949350505050565b826001600160a01b0316612af782611a7e565b6001600160a01b031614612b735760405162461bcd60e51b815260206004820152602960248201527f4552433732313a207472616e73666572206f6620746f6b656e2074686174206960448201527f73206e6f74206f776e00000000000000000000000000000000000000000000006064820152608401610c5e565b6001600160a01b038216612bee5760405162461bcd60e51b8152602060048201526024808201527f4552433732313a207472616e7366657220746f20746865207a65726f2061646460448201527f72657373000000000000000000000000000000000000000000000000000000006064820152608401610c5e565b612bf9600082612803565b6001600160a01b0383166000908152600460205260408120805460019290612c22908490613d29565b90915550506001600160a01b0382166000908152600460205260408120805460019290612c50908490613d40565b9091555050600081815260036020526040808220805473ffffffffffffffffffffffffffffffffffffffff19166001600160a01b0386811691821790925591518493918716917fddf252ad1be2c89b69c2b068fc378daa952ba7f163c4a11628f55a4df523b3ef91a4505050565b61192c82826040518060200160405280600081525061313f565b611369816131c8565b604080516001600160a01b038416602482015260448082018490528251808303909101815260649091019091526020810180517bffffffffffffffffffffffffffffffffffffffffffffffffffffffff167fa9059cbb00000000000000000000000000000000000000000000000000000000179052610efb908490613208565b600080546001600160a01b0383811673ffffffffffffffffffffffffffffffffffffffff19831681178455604051919092169283917f8be0079c531659141344cd1fd0a4f28419497f9722a3daafe3b4186f6b6457e09190a35050565b60008060018484604001518560000151866020015160405160008152602001604052604051612e09949392919093845260ff9290921660208401526040830152606082015260800190565b6020604051602081039080840390855afa158015612e2b573d6000803e3d6000fd5b5050604051601f1901519150506001600160a01b038116612e8e5760405162461bcd60e51b815260206004820152601860248201527f45434453413a20696e76616c6964207369676e617475726500000000000000006044820152606401610c5e565b601c546001600160a01b039081169116149392505050565b816001600160a01b0316836001600160a01b03161415612f085760405162461bcd60e51b815260206004820152601960248201527f4552433732313a20617070726f766520746f2063616c6c6572000000000000006044820152606401610c5e565b6001600160a01b03838116600081815260066020908152604080832094871680845294825291829020805460ff191686151590811790915591519182527f17307eab39ab6107e8899845ad3d59bd9653f200f220920489ca2b5937696c31910160405180910390a3505050565b612f80848484612ae4565b612f8c848484846132ed565b6122135760405162461bcd60e51b815260206004820152603260248201527f4552433732313a207472616e7366657220746f206e6f6e20455243373231526560448201527f63656976657220696d706c656d656e74657200000000000000000000000000006064820152608401610c5e565b606060188054610ca590613cd8565b60608161304d57505060408051808201909152600181527f3000000000000000000000000000000000000000000000000000000000000000602082015290565b8160005b8115613077578061306181613d77565b91506130709050600a83613e9b565b9150613051565b60008167ffffffffffffffff81111561309257613092613a03565b6040519080825280601f01601f1916602001820160405280156130bc576020820181803683370190505b5090505b84156128bc576130d1600183613d29565b91506130de600a86613eaf565b6130e9906030613d40565b60f81b8183815181106130fe576130fe613dab565b60200101907effffffffffffffffffffffffffffffffffffffffffffffffffffffffffffff1916908160001a905350613138600a86613e9b565b94506130c0565b613149838361348b565b61315660008484846132ed565b610efb5760405162461bcd60e51b815260206004820152603260248201527f4552433732313a207472616e7366657220746f206e6f6e20455243373231526560448201527f63656976657220696d706c656d656e74657200000000000000000000000000006064820152608401610c5e565b6131d1816135da565b600081815260076020526040902080546131ea90613cd8565b15905061136957600081815260076020526040812061136991613811565b600061325d826040518060400160405280602081526020017f5361666545524332303a206c6f772d6c6576656c2063616c6c206661696c6564815250856001600160a01b03166136829092919063ffffffff16565b805190915015610efb578080602001905181019061327b9190613ec3565b610efb5760405162461bcd60e51b815260206004820152602a60248201527f5361666545524332303a204552433230206f7065726174696f6e20646964206e60448201527f6f742073756363656564000000000000000000000000000000000000000000006064820152608401610c5e565b60006001600160a01b0384163b15613480576040517f150b7a020000000000000000000000000000000000000000000000000000000081526001600160a01b0385169063150b7a029061334a903390899088908890600401613ee0565b6020604051808303816000875af1925050508015613385575060408051601f3d908101601f1916820190925261338291810190613f1c565b60015b613435573d8080156133b3576040519150601f19603f3d011682016040523d82523d6000602084013e6133b8565b606091505b50805161342d5760405162461bcd60e51b815260206004820152603260248201527f4552433732313a207472616e7366657220746f206e6f6e20455243373231526560448201527f63656976657220696d706c656d656e74657200000000000000000000000000006064820152608401610c5e565b805181602001fd5b7fffffffff00000000000000000000000000000000000000000000000000000000167f150b7a02000000000000000000000000000000000000000000000000000000001490506128bc565b506001949350505050565b6001600160a01b0382166134e15760405162461bcd60e51b815260206004820181905260248201527f4552433732313a206d696e7420746f20746865207a65726f20616464726573736044820152606401610c5e565b6000818152600360205260409020546001600160a01b0316156135465760405162461bcd60e51b815260206004820152601c60248201527f4552433732313a20746f6b656e20616c7265616479206d696e746564000000006044820152606401610c5e565b6001600160a01b038216600090815260046020526040812080546001929061356f908490613d40565b9091555050600081815260036020526040808220805473ffffffffffffffffffffffffffffffffffffffff19166001600160a01b03861690811790915590518392907fddf252ad1be2c89b69c2b068fc378daa952ba7f163c4a11628f55a4df523b3ef908290a45050565b60006135e582611a7e565b90506135f2600083612803565b6001600160a01b038116600090815260046020526040812080546001929061361b908490613d29565b9091555050600082815260036020526040808220805473ffffffffffffffffffffffffffffffffffffffff19169055518391906001600160a01b038416907fddf252ad1be2c89b69c2b068fc378daa952ba7f163c4a11628f55a4df523b3ef908390a45050565b60606128bc848460008585843b6136db5760405162461bcd60e51b815260206004820152601d60248201527f416464726573733a2063616c6c20746f206e6f6e2d636f6e74726163740000006044820152606401610c5e565b600080866001600160a01b031685876040516136f79190613f39565b60006040518083038185875af1925050503d8060008114613734576040519150601f19603f3d011682016040523d82523d6000602084013e613739565b606091505b5091509150613749828286613754565b979650505050505050565b60608315613763575081612435565b8251156137735782518084602001fd5b8160405162461bcd60e51b8152600401610c5e9190613931565b82805461379990613cd8565b90600052602060002090601f0160209004810192826137bb5760008555613801565b82601f106137d457805160ff1916838001178555613801565b82800160010185558215613801579182015b828111156138015782518255916020019190600101906137e6565b5061380d929150613847565b5090565b50805461381d90613cd8565b6000825580601f1061382d575050565b601f01602090049060005260206000209081019061136991905b5b8082111561380d5760008155600101613848565b7fffffffff000000000000000000000000000000000000000000000000000000008116811461136957600080fd5b60006020828403121561389c57600080fd5b81356124358161385c565b6001600160a01b038116811461136957600080fd5b6000602082840312156138ce57600080fd5b8135612435816138a7565b60005b838110156138f45781810151838201526020016138dc565b838111156122135750506000910152565b6000815180845261391d8160208601602086016138d9565b601f01601f19169290920160200192915050565b6020815260006124356020830184613905565b60006020828403121561395657600080fd5b5035919050565b6000806040838503121561397057600080fd5b823561397b816138a7565b946020939093013593505050565b60008060006060848603121561399e57600080fd5b83356139a9816138a7565b925060208401356139b9816138a7565b929592945050506040919091013590565b600080604083850312156139dd57600080fd5b82356139e8816138a7565b915060208301356139f8816138a7565b809150509250929050565b634e487b7160e01b600052604160045260246000fd5b600067ffffffffffffffff80841115613a3457613a34613a03565b604051601f8501601f19908116603f01168101908282118183101715613a5c57613a5c613a03565b81604052809350858152868686011115613a7557600080fd5b858560208301376000602087830101525050509392505050565b600060208284031215613aa157600080fd5b813567ffffffffffffffff811115613ab857600080fd5b8201601f81018413613ac957600080fd5b6128bc84823560208401613a19565b803560ff81168114613ae957600080fd5b919050565b600080600083850360a0811215613b0457600080fd5b613b0d85613ad8565b9350613b1b60208601613ad8565b925060607fffffffffffffffffffffffffffffffffffffffffffffffffffffffffffffffc082011215613b4d57600080fd5b506040516060810181811067ffffffffffffffff82111715613b7157613b71613a03565b6040908152850135815260608501356020820152613b9160808601613ad8565b6040820152809150509250925092565b801515811461136957600080fd5b60008060408385031215613bc257600080fd5b8235613bcd816138a7565b915060208301356139f881613ba1565b60008060008060808587031215613bf357600080fd5b8435613bfe816138a7565b93506020850135613c0e816138a7565b925060408501359150606085013567ffffffffffffffff811115613c3157600080fd5b8501601f81018713613c4257600080fd5b613c5187823560208401613a19565b91505092959194509250565b600060208284031215613c6f57600080fd5b813561243581613ba1565b60008060008060008060c08789031215613c9357600080fd5b863595506020870135945060408701359350606087013592506080870135613cba81613ba1565b915060a0870135613cca81613ba1565b809150509295509295509295565b600181811c90821680613cec57607f821691505b60208210811415613d0d57634e487b7160e01b600052602260045260246000fd5b50919050565b634e487b7160e01b600052601160045260246000fd5b600082821015613d3b57613d3b613d13565b500390565b60008219821115613d5357613d53613d13565b500190565b6000816000190483118215151615613d7257613d72613d13565b500290565b6000600019821415613d8b57613d8b613d13565b5060010190565b600060208284031215613da457600080fd5b5051919050565b634e487b7160e01b600052603260045260246000fd5b600084516020613dd48285838a016138d9565b855191840191613de78184848a016138d9565b8554920191600090600181811c9080831680613e0457607f831692505b858310811415613e2257634e487b7160e01b85526022600452602485fd5b808015613e365760018114613e4757613e74565b60ff19851688528388019550613e74565b60008b81526020902060005b85811015613e6c5781548a820152908401908801613e53565b505083880195505b50939b9a5050505050505050505050565b634e487b7160e01b600052601260045260246000fd5b600082613eaa57613eaa613e85565b500490565b600082613ebe57613ebe613e85565b500690565b600060208284031215613ed557600080fd5b815161243581613ba1565b60006001600160a01b03808716835280861660208401525083604083015260806060830152613f126080830184613905565b9695505050505050565b600060208284031215613f2e57600080fd5b81516124358161385c565b60008251613f4b8184602087016138d9565b919091019291505056fea26469706673582212209ab0c21183055bf5290e0422f2a468c6add99937ad4d323328e797caf08588e064736f6c634300080b00334552433732313a207472616e7366657220746f206e6f6e204552433732315265",
  "linkReferences": {},
  "deployedLinkReferences": {}
}